:100000000C9463000C948B000C948B000C948B006C
:100010000C948B000C948B000C948B000C948B0034
:100020000C948B000C948B000C948B000C948B0024
:100030000C948B000C948B000C948B000C948B0014
:100040000C946E080C948B000C943C080C941608CD
:100050000C948B000C948B000C948B000C948B00F4
:100060000C94B8080C948B000000000024002700BA
:100070002A0000000000250028002B0000000000DE
:1000800023002600290004040404040404040202DA
:100090000202020203030303030301020408102007
:1000A0004080010204081020010204081020000012
:1000B0000008000201000003040700000000000027
:1000C0000000D709351211241FBECFEFD8E0DEBFE4
:1000D000CDBF13E0A0E0B1E0EAE7FBE202C005908B
:1000E0000D92AC35B107D9F725E0ACE5B3E001C01E
:1000F0001D92AC32B207E1F710E0C2E6D0E004C0D6
:100100002197FE010E94B813C136D107C9F70E949A
:10011000360A0C94B0150C94000008950895DB0184
:1001200014964D915C9115976D917C91DC01ED9148
:10013000FC910280F381E02D0994AF92BF92CF929F
:10014000DF92EF92FF920F931F93CF93DF936C0197
:100150007B018B01040F151FEB015E01AE18BF0878
:10016000C017D10759F06991D601ED91FC9101902A
:10017000F081E02DC6010995892B79F7C501DF9142
:10018000CF911F910F91FF90EF90DF90CF90BF9094
:10019000AF900895FC01538D448D252F30E0842FBE
:1001A00090E0821B930B541710F0CF96089501979F
:1001B0000895FC01918D828D981761F0A28DAE0F8C
:1001C000BF2FB11D5D968C91928D9F5F9F73928F13
:1001D00090E008958FEF9FEF0895FC01918D828D3F
:1001E000981731F0828DE80FF11D858D90E008950C
:1001F0008FEF9FEF0895FC01918D228D892F90E064
:10020000805C9F4F821B91098F73992708958BE51E
:1002100094E00E94FB0021E0892B09F420E0822F6A
:10022000089580E090E0892B29F00E940701811158
:100230000C9400000895FC01A48DA80FB92FB11DE6
:10024000A35ABF4F2C91848D90E001968F7399270C
:10025000848FA689B7892C93A089B1898C918370EA
:1002600080648C93938D848D981306C00288F389E3
:10027000E02D80818F7D80830895EF92FF920F9310
:100280001F93CF93DF93EC0181E0888F9B8D8C8D42
:1002900098131AC0E889F989808185FF15C09FB736
:1002A000F894EE89FF896083E889F98980818370F9
:1002B000806480839FBF81E090E0DF91CF911F91A8
:1002C0000F91FF90EF900895F62E0B8D10E00F5FC9
:1002D0001F4F0F731127E02E8C8D8E110CC00FB69F
:1002E00007FCFACFE889F989808185FFF5CFCE0137
:1002F0000E941B01F1CFEB8DEC0FFD2FF11DE35A96
:10030000FF4FF0829FB7F8940B8FEA89FB898081B9
:100310008062CFCFCF93DF93EC01888D8823B9F033
:10032000AA89BB89E889F9898C9185FD03C0808100
:1003300086FD0DC00FB607FCF7CF8C9185FFF2CF7D
:10034000808185FFEDCFCE010E941B01E9CFDF91B7
:10035000CF910895833081F028F4813099F0823074
:10036000A9F008958730A9F08830C9F08430B1F43D
:10037000809180008F7D03C0809180008F77809373
:100380008000089584B58F7784BD089584B58F7DEE
:10039000FBCF8091B0008F778093B000089580915B
:1003A000B0008F7DF9CFCF93DF93282F30E0F90194
:1003B000E255FF4F8491F901E656FF4FD491F901C0
:1003C000EA57FF4FC491CC23A1F081110E94AA01EA
:1003D000EC2FF0E0EE0FFF1FE458FF4FA591B49112
:1003E000EC91ED2381E090E009F480E0DF91CF9182
:1003F000089580E090E0FACF1F93CF93DF93282FEA
:1004000030E0F901E255FF4F8491F901E656FF4FC4
:10041000D491F901EA57FF4FC491CC23A9F0162FCC
:1004200081110E94AA01EC2FF0E0EE0FFF1FEE58A1
:10043000FF4FA591B4918FB7F894EC91111108C0BA
:10044000D095DE23DC938FBFDF91CF911F9108956C
:10045000DE2BF8CFCF93DF9390E0FC01E656FF4F01
:1004600024918A579F4FFC0184918823D1F090E01A
:10047000880F991FFC01E859FF4FA591B491FC0129
:10048000EE58FF4FC591D49161110EC09FB7F894FB
:100490008C91E22FE0958E238C932881E223E883D0
:1004A0009FBFDF91CF9108958FB7F894EC91E22B25
:1004B000EC938FBFF6CF3FB7F89480910F049091E3
:1004C0001004A0911104B091120426B5A89B05C098
:1004D0002F3F19F00196A11DB11D3FBFBA2FA92FC3
:1004E000982F8827BC01CD01620F711D811D911DC0
:1004F00042E0660F771F881F991F4A95D1F708952C
:100500008F929F92AF92BF92CF92DF92EF92FF9223
:100510004B015C010E945B026B017C010E945B024B
:100520006C197D098E099F09683E7340810591050C
:10053000A8F321E0821A9108A108B10888EEC80E3C
:1005400083E0D81EE11CF11C81149104A104B104C4
:1005500029F7FF90EF90DF90CF90BF90AF909F90E2
:100560008F9008952091C403260F3327331F213223
:100570003105ECF42091E803FC0190E080E02430A8
:1005800069F082E00895A091C4032191AC014C551B
:100590005C4FA40FB52FB11D2C930196861798F3CD
:1005A0008091C403680F6093C40380E0089581E0E4
:1005B00008951092E80381E08093EA031092E90322
:1005C00061E082E10E94FC0161E083E10E94FC01A4
:1005D000E9EBF0E080818E7F808380818D7F808356
:1005E00088E48093B80085E48093BC000895CF939D
:1005F000DF9391E09093A3038823B9F0C091B800F2
:10060000D091BA008091BC008A7B8093BC0060E0EE
:1006100082E10E94FC0160E083E10E94FC010E94F3
:10062000D902D093BA00C093B800DF91CF9108955A
:100630000895E0911A0480911904E81730F4F0E06D
:10064000E258FC4F808190E008958FEF9FEF08956E
:1006500090911A04809119042FEF3FEF981748F4F6
:10066000E92FF0E0E258FC4F208130E09F5F90934B
:100670001A04C90108958091190490911A04891BE4
:10068000990B0895CF92DF92EF92FF920F931F93F1
:10069000CF93DF937C01CB018A0120917D0322233C
:1006A00089F0EB016B01C40ED51ECC15DD0569F098
:1006B0006991D701ED91FC910190F081E02DC70186
:1006C0000995F3CF642F0E94B202C801DF91CF9148
:1006D0001F910F91FF90EF90DF90CF900895CF93EF
:1006E000DF931F92CDB7DEB7698320917D0322236C
:1006F000F9F020911704203258F021E030E0FC019D
:100700003383228390E080E00F90DF91CF910895B2
:1007100080911804E82FF0E0E35AFC4F9981908310
:100720008F5F809318048093170481E090E0ECCFF2
:1007300061E0CE0101960E94B202F7CFCF92DF9224
:10074000EF92FF920F931F93CF93DF93FC01C4812D
:1007500021E020937D03C0935C0310921804109253
:1007600017048385682B88EF94E00E946F03D09173
:100770001704D13208F092C00E945B026B017C0129
:100780008091E803811165C082E08093E80381E0F5
:100790008093EA038FEF8093E70310920C04D093C9
:1007A0000B04ADE5B3E0EBEEF3E080E0D81385C0D9
:1007B00010920D0480910D04CC0FC82BC0930D0432
:1007C0008091E903813009F07CC01092E9030E9416
:1007D0005B026B017C0180910D048093BB008091D2
:1007E0009F039091A003A091A103B091A203892B34
:1007F0008A2B8B2B99F00E945B0200919F03109132
:10080000A0032091A1033091A2036C197D098E09E8
:100810009F090617170728073907E0F18091BC00E8
:1008200083FDD9CF85EC8093BC000E945B026B01F5
:100830007C018091E803823009F445C08091E70390
:100840008F3F61F18091E703803241F18091E703AE
:1008500025C080919F039091A003A091A103B09126
:10086000A203892B8A2B8B2B09F48ACF0E945B026F
:1008700000919F031091A0032091A1033091A20346
:100880006C197D098E099F09061717072807390774
:1008900008F076CF80919E030E94F7021092180410
:1008A0001092170410927D03DF91CF911F910F9149
:1008B000FF90EF90DF90CF9008959D9191938F5F7F
:1008C00075CF85EEB0CF80919F039091A003A0914A
:1008D000A103B091A203892B8A2B8B2B09F4A9CFFA
:1008E0000E945B0200919F031091A0032091A1033D
:1008F0003091A2036C197D098E099F09061717070D
:100900002807390708F095CFC5CF089590E080E01B
:1009100008950F931F93CF938C01C62F0E949E03BF
:100920006C2F6460C8010E949E036C2F6B7FC8010E
:100930000E949E0383EC90E00197F1F7CF911F9105
:100940000F9108950F931F93CF93DF938C01D62FB0
:10095000C42F607F642B0E94890480E1D89FB0017E
:1009600011246C2BC801DF91CF911F910F910C9432
:100970008904CF93DF93CDB7DEB728970FB6F894ED
:10098000DEBF0FBECDBF98E0EEE1F1E0DE011196D3
:1009900001900D929A95E1F790912405981708F42B
:1009A0008FEF90E0880F991F21E030E02C0F3D1F62
:1009B000820F931FFC016081606840E08CE195E04C
:1009C00028960FB6F894DEBF0FBECDBFDF91CF9152
:1009D0000C94A20440E061E08CE195E00E94A20446
:1009E0008BE39FE10197F1F7089541E00E94A20493
:1009F00081E090E00895FB0101900020E9F7319734
:100A0000AF01461B570BDC01ED91FC910280F38195
:100A1000E02D0994CF93DF93BC018BE594E00E9415
:100A20008F00EC0166E571E08BE594E00E94FB0429
:100A30008C0F9D1FDF91CF910895BC018CE195E053
:100A40000C94FB040F931F93CF93DF93EC018881E9
:100A50009981009759F02A813B812617370730F09A
:100A600081E0DF91CF911F910F9108958B016F5F0E
:100A70007F4F0E94E314009759F0998388831B836A
:100A80000A832C813D81232B59F7FC011082E8CF8A
:100A900080E0E7CFEF92FF920F931F93CF93DF9306
:100AA0006115710541F480E0DF91CF911F910F91A5
:100AB000FF90EF90089541155105B1F07B01EC01D5
:100AC0000C811D81040F151FB8010E942205882387
:100AD00051F3288139818C819D81B701820F931F49
:100AE0000E94A9151D830C8381E0DECFCF93DF9395
:100AF000EC0188819981009711F00E945A141982A3
:100B000018821D821C821B821A82DF91CF91089568
:100B1000CF93DF93EC01FB0101900020E9F73197BF
:100B2000AF01461B570B0E944A05811103C0CE013D
:100B30000E947605CE01DF91CF910895CF93DF9388
:100B4000EC01FB0144815581608171810E944A055D
:100B5000811103C0CE010E947605CE01DF91CF91B5
:100B60000895EF92FF920F931F93CF93DF93EC01C1
:100B70007B018A01BA010E94220581110BC0CE01BE
:100B80000E947605CE01DF91CF911F910F91FF90CA
:100B9000EF9008951D830C83B701888199810E948D
:100BA000A915F0CFEF92FF920F931F93CF93DF938E
:100BB000CDB7DEB762970FB6F894DEBF0FBECDBFDC
:100BC0008C01CB01F80111821082138212821582EE
:100BD00014824AE09E012F5F3F4F7901B9010E94C4
:100BE000E912F70101900020E9F73197AF014E19A2
:100BF0005F09B701C8010E94B10562960FB6F8946B
:100C0000DEBF0FBECDBFDF91CF911F910F91FF903F
:100C1000EF900895FB01DC0111961C921E92139631
:100C20001C921E92129715961C921E92149786176C
:100C3000970749F0608171816115710521F0448148
:100C400055810C94B1050895FC0111821082138224
:100C5000128215821482FB0101900020E9F731977E
:100C6000AF01461B570B0C94B105FC0180819181AB
:100C7000009711F00C945A1408950F931F93CF937B
:100C8000DF93CDB7DEB762970FB6F894DEBF0FBE25
:100C9000CDBF04E110E066E571E08BE594E00E94D1
:100CA000FB0401501109B9F7609101017091020133
:100CB000CE0107960E94D20569E571E0CE0101964A
:100CC0000E942406BE01695F7F4FCE0101960E94FB
:100CD0009E050E940A05CE0101960E943506CE01AE
:100CE00007960E9435066091030170910401CE01C0
:100CF00007960E94D20564E671E0CE0101960E943B
:100D00002406BE01695F7F4FCE0101960E949E05B9
:100D10000E940A05CE0101960E943506CE01079673
:100D20000E9435066091050170910601CE0107967B
:100D30000E94D20560E771E0CE0101960E94240670
:100D4000BE01695F7F4FCE0101960E949E050E9401
:100D50000A05CE0101960E943506CE0107960E9433
:100D600035066091070170910801CE0107960E9437
:100D7000D2056CE771E0CE0101960E942406BE0107
:100D8000695F7F4FCE0101960E949E050E940A0571
:100D9000CE0101960E943506CE0107960E943506C7
:100DA0006091090170910A01CE0107960E94D20557
:100DB00068E871E0CE0101960E942406BE01695FD9
:100DC0007F4FCE0101960E949E050E940A05CE012A
:100DD00001960E943506CE0107960E94350665E908
:100DE00071E08BE594E00E94FB0466E571E08BE521
:100DF00094E00E94FB046FE070E0CE010D960E942B
:100E0000D2056091110170911201CE0107960E94E6
:100E1000D20561EB71E0CE0101960E942406BE016D
:100E2000695F7F4FCE0101960E949E056CEB71E0D9
:100E30000E948805BE01635F7F4F0E949E0562E2AB
:100E400073E00E9488050E940A05CE0101960E9467
:100E50003506CE0107960E943506CE010D960E94FA
:100E600035066AE070E0CE010D960E94D2056091D1
:100E70000F0170911001CE0107960E94D20564EC1B
:100E800071E0CE0101960E942406BE01695F7F4F8A
:100E9000CE0101960E949E056CEB71E00E948805D0
:100EA000BE01635F7F4F0E949E0562E273E00E9475
:100EB00088050E940A05CE0101960E943506CE01E2
:100EC00007960E943506CE010D960E94350665E014
:100ED00070E0CE010D960E94D20560910D017091D7
:100EE0000E01CE0107960E94D2056CEC71E0CE0196
:100EF00001960E942406BE01695F7F4FCE010196D4
:100F00000E949E056CEB71E00E948805BE01635F44
:100F10007F4F0E949E0562E273E00E9488050E9456
:100F20000A05CE0101960E943506CE0107960E9461
:100F30003506CE010D960E94350662E370E0CE01C3
:100F40000D960E94D20560910B0170910C01CE01AB
:100F500007960E94D20566ED71E0CE0101960E94CF
:100F60002406BE01695F7F4FCE0101960E949E0557
:100F70006CEB71E00E948805BE01635F7F4F0E94A9
:100F80009E0562E273E00E9488050E940A05CE0178
:100F900001960E943506CE0107960E943506CE01C5
:100FA0000D960E94350662960FB6F894DEBF0FBE0E
:100FB000CDBFDF91CF911F910F91089585ED809363
:100FC000BC0080919F039091A003A091A103B091D8
:100FD000A2030796A11DB11D23E0B695A79597958D
:100FE00087952A95D1F72091BC0024FD03C010926B
:100FF000E803089540919F035091A0036091A103DD
:101000007091A203452B462B472B69F30097A1054E
:10101000B10541F025E32A95F1F700000197A109F8
:10102000B109E1CF80919E030C94F7021F920F92B9
:101030000FB60F9211242F933F934F935F936F93AB
:101040007F938F939F93AF93BF93EF93FF938BE522
:1010500094E00E941B01FF91EF91BF91AF919F918E
:101060008F917F916F915F914F913F912F910F9051
:101070000FBE0F901F9018951F920F920FB60F92F0
:1010800011242F938F939F93EF93FF93E0916B0421
:10109000F0916C048081E0917104F091720482FD02
:1010A0001BC09081809174048F5F8F7320917504B1
:1010B000821741F0E0917404F0E0E55AFB4F958F00
:1010C00080937404FF91EF919F918F912F910F90D6
:1010D0000FBE0F901F9018958081F4CF1F920F9232
:1010E0000FB60F9211242F933F938F939F93AF933B
:1010F000BF9380911B0490911C04A0911D04B0919A
:101100001E0430910E0423E0230F2D3758F501966D
:10111000A11DB11D20930E0480931B0490931C0409
:10112000A0931D04B0931E0480910F0490911004AD
:10113000A0911104B09112040196A11DB11D8093DC
:101140000F0490931004A0931104B0931204BF9164
:10115000AF919F918F913F912F910F900FBE0F9064
:101160001F90189526E8230F0296A11DB11DD2CF1E
:101170001F920F920FB60F9211242F933F934F930C
:101180005F936F937F938F939F93AF93BF93EF93EF
:10119000FF938091B900887F803609F44AC0F0F54A
:1011A000883209F4A7C018F5803109F49BC0B8F45F
:1011B000882309F4F9C0883009F494C0FF91EF91B5
:1011C000BF91AF919F918F917F916F915F914F915F
:1011D0003F912F910F900FBE0F901F90189588315F
:1011E00009F488C0803251F78093E70314C080343B
:1011F00009F49DC040F48033B9F38833F9F6809345
:10120000E70385ECB0C0803509F485C0883509F462
:1012100096C0883499F60E94DE07D0CF883909F449
:101220008CC038F5883729F050F4883611F08037B3
:1012300029F683E08093E8031092E60357C08838CC
:1012400009F47BC0803919F0803809F0B7CF80915C
:10125000E603803208F071C0E091E60381E08E0F72
:101260008093E6038091BB00F0E0EA53FC4F80835B
:101270003DC0803B39F0E0F4803A09F479C0883A07
:1012800009F09CCF84E08093E8031092C50310928C
:10129000C403E0911504F091160409958091C403EC
:1012A00081110FC081E08093C4031092A40309C090
:1012B000803C09F4A6CF883C09F4A3CF883B09F011
:1012C0007DCFE091C50381E08E0F8093C503F0E0F0
:1012D000EC55FC4F80818093BB009091C5038091B9
:1012E000C40329C080910D048093BB0085EC8093DA
:1012F000BC0064CF90910C0480910B04981758F5B2
:10130000E0910C0481E08E0F80930C04F0E0E55135
:10131000FC4F8081E9CFE0910C0481E08E0F809337
:101320000C048091BB00F0E0E551FC4F808390916C
:101330000C0480910B049817C8F285E8D8CFE0918F
:101340000C0481E08E0F80930C048091BB00F0E0D0
:10135000E551FC4F80838091EA0381115CCF81E0ED
:101360008093E90384EA8093BC001092E80326CFBF
:1013700085EC8093BC001092E8038091E6038032F4
:1013800030F4E091E603F0E0EA53FC4F1082609104
:10139000E60370E0E0911304F091140486EC93E00E
:1013A00009951092E6030ACF1092E70334CFEBE5DC
:1013B000F4E01382128288EE93E0A0E0B0E0848330
:1013C0009583A683B7832AE231E03183208325EC1D
:1013D00030E03587248724EC30E03787268720ECFF
:1013E00030E0318B208B21EC30E0338B228B22ECF0
:1013F00030E0358B248B26EC30E0378B268B118E3A
:10140000128E138E148EE8EFF4E01382128284831E
:101410009583A683B7838CE391E091838083ECE18D
:10142000F5E0138212828EE491E0918380838FE352
:10143000848380E2818782E08287138660EE71E098
:1014400086E195E00E9424066AEE71E080E195E075
:101450000E94240661EF71E08AE095E00E94240674
:101460006AEF71E084E095E00C942406CF93DF935B
:10147000CDB7DEB76C970FB6F894DEBF0FBECDBF09
:10148000789484B5826084BD84B5816084BD85B55F
:10149000826085BD85B5816085BD80916E0081606B
:1014A00080936E0010928100809181008260809311
:1014B0008100809181008160809381008091800013
:1014C0008160809380008091B10084608093B1003E
:1014D0008091B00081608093B00080917A00846038
:1014E00080937A0080917A00826080937A00809164
:1014F0007A00816080937A0080917A00806880937E
:101500007A001092C100E0916B04F0916C0482E0CB
:101510008083E0916704F09168041082E09169048F
:10152000F0916A048FEC808310927304E0916F0451
:10153000F091700486E08083E0916D04F0916E0478
:10154000808180618083E0916D04F0916E048081E0
:1015500088608083E0916D04F0916E0480818068E2
:101560008083E0916D04F0916E0480818F7D808393
:1015700010921A0410921904109218041092170471
:101580000E94D9028DE890E0909316048093150490
:101590008EE890E090931404809313041092210538
:1015A00080912605823018F098E090932105809371
:1015B000240562E370E080E090E00E948002609188
:1015C00027058CE195E00E949E0368EE73E080E0C1
:1015D00090E00E94800260E38CE195E00E94890423
:1015E0000BE416E4C8010197F1F760E38CE195E0A4
:1015F0000E948904C8010197F1F760E38CE195E04E
:101600000E94890483E592E00197F1F760E28CE1A2
:1016100095E00E94890460912105606240E08CE1C0
:1016200095E00E94A20484E08093220540E06CE0F3
:101630008CE195E00E94A2040E94EA0482E080937B
:10164000230540E066E08CE195E00E94A20440E0C2
:1016500062E08CE195E00E94A2048BE39FE1019798
:10166000F1F788E08093270560E08CE195E00E9427
:101670009E0380E00E94B9040E943D0660E082E083
:101680000E942A0260E083E00E942A0260E084E077
:101690000E942A0260E085E00E942A0260E086E063
:1016A0000E942A0260E087E00E942A0261E088E04E
:1016B0000E942A0261E089E00E942A0283E092E00F
:1016C0000E941D0581E00E94B90482E292E00E941E
:1016D0001D0574E0472E512C612C712C2FB7F89406
:1016E00080911B0490911C04A0911D04B0911E04D4
:1016F0002FBF8093570490935804A0935904B0933C
:101700005A048091550490915604009709F07FC1C6
:1017100082E00E94D3019093500480934F0401977C
:1017200001F580914D0490914E04892BD1F4809164
:10173000230490912404019690932404809323041D
:101740008091010190910201019690930201809392
:1017500001010E943D066AE070E080E090E00E9496
:10176000800280914F049091500490934E04809396
:101770004D0483E00E94D3019093400480933F0482
:10178000019701F580913D0490913E04892BD1F49D
:1017900080912504909126040196909326048093CD
:1017A0002504809103019091040101969093040116
:1017B000809303010E943D066AE070E080E090E0C3
:1017C0000E94800280913F049091400490933E04D7
:1017D00080933D0484E00E94D30190933C04809365
:1017E0003B04019701F58091390490913A04892BCB
:1017F000D1F48091270490912804019690932804B5
:1018000080932704809105019091060101969093A1
:101810000601809305010E943D066AE070E080E0C9
:1018200090E00E94800280913B0490913C04909350
:101830003A048093390485E00E94D30190933804E0
:1018400080933704019701F5809135049091360417
:10185000892BD1F48091290490912A0401969093C8
:101860002A04809329048091070190910801019630
:1018700090930801809307010E943D066AE070E0A2
:1018800080E090E00E9480028091370490913804BB
:10189000909336048093350486E00E94D3019093A0
:1018A000220480932104019701F580911F049091F7
:1018B0002004892BD1F480912B0490912C04019663
:1018C00090932C0480932B048091090190910A013C
:1018D000019690930A01809309010E943D066AE0F7
:1018E00070E080E090E00E9480028091210490915D
:1018F00022049093200480931F0487E00E94D30168
:101900009093340480933304019709F06BC0809165
:10191000310490913204892B09F064C00091530482
:1019200010915404E3E2F4E090E080E041915191A1
:1019300030E020E024173507FCF4009729F40B5F12
:101940001F4F2F5F3F4FF6CF8130910519F4065F8F
:101950001F4FF7CF8230910519F40C5E1F4FF1CF66
:101960008330910519F40E5C1F4FEBCF8430910545
:1019700041F70C591F4FE5CF019686309105B1F61E
:1019800010935404009353040E94EA04B801CE015A
:1019900007960E94D205BE01695F7F4FCE01019676
:1019A0000E940A0664E372E0CE0101960E94880557
:1019B000BC018CE195E00E948F00CE0101960E944F
:1019C0003506CE0107960E943506AA24A394B12CB1
:1019D000B0925604A092550468EE73E080E090E067
:1019E0000E948002809133049091340490933204D9
:1019F00080933104A0E0B0E0AB2B09F46FCE0E94DD
:101A00000701882309F46ACE0E94000067CE01977F
:101A100089F7809113018823D1F00E94EA0485E4BC
:101A200092E00E941D0581E00E94B9048CE592E0DD
:101A30000E941D0580E00E94B9041092130180915C
:101A4000530490915404909352048093510482E083
:101A50000E94D3019093500480934F04019799F50D
:101A600080914D0490914E04892B69F52091410499
:101A700030914204809111019091120182179307D5
:101A80000CF43CC140915104509152044F30510527
:101A90000CF434C12F5F3F4F309342042093410434
:101AA000019790931201809311014F505109509367
:101AB0005204409351040E943D066AE070E080E0C9
:101AC00090E00E94800280914F0490915004909386
:101AD0004E0480934D0483E00E94D3019093400410
:101AE00080933F04019799F580913D0490913E04C5
:101AF000892B69F5209143043091440480910F01B2
:101B000090911001821793070CF42FC1409151045A
:101B1000509152044A3051050CF427C12F5F3F4FBA
:101B200030934404209343040197909310018093D1
:101B30000F014A50510950935204409351040E949E
:101B40003D066AE070E080E090E00E9480028091B3
:101B50003F049091400490933E0480933D0484E0C0
:101B60000E94D30190933C0480933B04019799F524
:101B70008091390490913A04892B69F520914504AC
:101B80003091460480910D0190910E0182179307C8
:101B90000CF422C14091510450915204453051053A
:101BA0000CF41AC12F5F3F4F309346042093450435
:101BB000019790930E0180930D0145505109509368
:101BC0005204409351040E943D066AE070E080E0B8
:101BD00090E00E94800280913B0490913C0490939D
:101BE0003A048093390485E00E94D301909338042D
:101BF00080933704019799F58091350490913604CC
:101C0000892B69F5209147043091480480910B019C
:101C100090910C01821793070CF415C14091510467
:101C200050915204423351050CF40DC12F5F3F4FC8
:101C30003093480420934704019790930C018093BC
:101C40000B014253510950935204409351040E9496
:101C50003D066AE070E080E090E00E9480028091A2
:101C6000370490913804909336048093350487E0CC
:101C70000E94D3019093340480933304019709F0B8
:101C8000B1CE00913104109132040115110509F013
:101C9000A9CE609157047091580480915904909195
:101CA0005A04611571058105910511F00E94E01239
:101CB0000E949112A30192010E941E136F5F7F4F39
:101CC0008F4F9F4FE0905304F090540451E4C52E81
:101CD00054E0D52EF60190E080E04191519130E042
:101CE00020E0241735070CF0F7C0009709F0E2C098
:101CF000AFE0EA1AF1082F5F3F4FF3CF8217930747
:101D000064F440915104509152044F3051052CF02D
:101D10008DE792E00E941D05D0CE821793070CF448
:101D2000D2CE80915104909152040F970CF0CBCEFB
:101D30000E94EA0487E992E00E941D0568EE73E0C4
:101D400080E090E00E9480020E94EA0485E492E034
:101D50000E941D0581E00E94B9048CE592E00E947A
:101D60001D0580E00E94B904AECE8217930764F48B
:101D700040915104509152044A3051052CF086EBA9
:101D800092E00E941D05DDCE821793070CF4DFCE92
:101D900080915104909152040A970CF0D8CE0E9481
:101DA000EA0487E992E00E941D0568EE73E080E096
:101DB00090E00E9480020E94EA0485E492E00E9482
:101DC0001D0581E00E94B9048CE592E00E941D058A
:101DD00080E00E94B904BBCE8217930764F440915F
:101DE000510450915204453051052CF08DEC92E095
:101DF0000E941D05EACE821793070CF4ECCE809169
:101E000051049091520405970CF0E5CE0E94EA042B
:101E100087E992E00E941D0568EE73E080E090E0A3
:101E20000E9480020E94EA0485E492E00E941D055F
:101E300081E00E94B9048CE592E00E941D0580E0DB
:101E40000E94B904C8CE8217930764F440915104EC
:101E500050915204423351052CF086EE92E00E94DC
:101E60001D05F7CE821793070CF4F9CE809151042B
:101E700090915204C2970CF0F2CE0E94EA0487E9D6
:101E800092E00E941D0568EE73E080E090E00E9401
:101E900080020E94EA0485E492E00E941D0581E030
:101EA0000E94B9048CE592E00E941D0580E00E942A
:101EB000B904D5CE8130910521F4BAE0EB1AF108CE
:101EC0001ACF8230910521F4A5E0EA1AF10813CF68
:101ED000B2E3EB1AF1080FCF01968430910509F0B7
:101EE000FCCEF0923004E0922F046230710509F0CC
:101EF00023C161E088E00E94FC010E94EA048FEFA8
:101F000092E00E941D0568EE73E080E090E00E9480
:101F1000800240910B0150910C0120910D013091F4
:101F20000E01E0910F01F09110016091110170918B
:101F3000120190E080E0D6010D911D916D01B0E09D
:101F4000A0E0A017B107A4F4009721F46F5F7F4FC2
:101F50001196F7CF8130910511F43196F9CF823087
:101F6000910519F42F5F3F4FF3CF4F5F5F4FF0CFD5
:101F7000019684309105F9F6F0931001E0930F017A
:101F8000709312016093110150930C0140930B0167
:101F900030930E0120930D010E943D068091230491
:101FA000909124046C0197FF02C0D12CC12C8C1994
:101FB0009D0990932404809323048091250490919B
:101FC00026047C0197FF02C0F12CE12C8E199F0999
:101FD00090932604809325048091270490912804EF
:101FE0008C0197FF02C010E000E0801B910B9093E2
:101FF0002804809327048091290490912A044C019D
:1020000097FF02C0912C812C8819990990932A047A
:102010008093290480912B0490912C045C0197FFFC
:1020200002C0B12CA12C8A199B0990932C04809397
:102030002B040E94EA04B401CE0101960E94D2054D
:10204000B501CE010D960E94D205BE01635F7F4FA0
:10205000CE0107960E940A066DE073E0CE01079656
:102060000E948805BE016F5F7F4F0E949E056AE156
:1020700073E00E948805BC018CE195E00E948F000E
:10208000CE0107960E943506CE010D960E943506B8
:10209000CE0101960E94350681E00E94B904B60186
:1020A000CE0101960E94D205B701CE0107960E948B
:1020B000D205B801CE0143960E94D205BE016D5EE5
:1020C0007F4FCE010D960E940A0665E273E0CE01B5
:1020D0000D960E948805BE01695F7F4F0E949E0594
:1020E00061E373E00E948805BE016F5F7F4F0E942D
:1020F0009E056DE373E00E948805BC018CE195E0CC
:102100000E948F00CE010D960E943506CE014396A7
:102110000E943506CE0107960E943506CE01019633
:102120000E94350680E00E94B90482E090E090931E
:1021300056048093550456CC61E089E00E94FC016E
:102140006091090170910A01809107019091080145
:10215000C0900501D090060124E12C9D50012D9DD9
:10216000B00C1124BC8EAB8E209003013090040182
:102170003AE0329DF001339DF00D112440910101B0
:10218000509102015A8F498F25E0249FD001259F4D
:10219000B00D11249B01912C812C54E6E516F1041D
:1021A0000CF0B6C030930A0120930901B12CA12C88
:1021B00052E3E516F1040CF0DAC090930801809325
:1021C0000701C701F12CE12C9C01843191050CF031
:1021D000F2C0D0920601C0920501D12CC12C2A3048
:1021E00031050CF008C13092040120920301898D61
:1021F0009A8D522F432F253031050CF01BC130939F
:10220000300420932F049093020180930101809168
:102210000001882309F422C10E94EA04B501CE011D
:1022200001960E94D205B401CE010D960E94D205FE
:10223000BE01635F7F4FCE0107960E940A066DE0E4
:1022400073E0CE0107960E948805BE016F5F7F4F45
:102250000E949E056AE173E00E948805BC018CE142
:1022600095E00E948F00CE0107960E943506CE01B0
:102270000D960E943506CE0101960E94350681E03A
:102280000E94B904B801CE0101960E94D205B601A0
:10229000CE0107960E94D205B701CE0143960E9457
:1022A000D205BE016D5E7F4FCE010D960E940A06DB
:1022B00065E273E0CE010D960E948805BE01695F5C
:1022C0007F4F0E949E0561E373E00E948805BE0176
:1022D0006F5F7F4F0E949E056DE373E00E9488054B
:1022E000BC018CE195E00E948F00CE010D960E940A
:1022F0003506CE0143960E943506CE0107960E9410
:102300003506CE0101960E9435060E943D060DCF8E
:10231000121613064CF444E6E41AF1085FEF851A2E
:10232000950A2150310939CF30930A0120930901D0
:1023300024E6A22EA69E9001A79E300D112442E312
:10234000B42EB89EB001B99E700D1124260F371F10
:102350004B8D5C8D240F351F2E0F3F1F2A0F3B1F07
:102360002E153F050CF022CF109200011FCF18163A
:10237000190644F422E3E21AF1083FEFA31AB30A64
:10238000019716CF909308018093070142E3489F7D
:102390009001499F300D11244B8D5C8D420F531FCE
:1023A0004E0F5F1F4A0F5B1F4E155F050CF009CFE4
:1023B0001092000106CF44971C141D043CF45FEFFB
:1023C000E51AF50A21E0C21AD108FECED092060124
:1023D000C092050144E14C9DC0014D9D900D11241A
:1023E0008E0F9F1F8A0F9B1F821793070CF0F5CE4D
:1023F00010920001F2CE121413044CF42A50310949
:102400005FEFC51AD50A81E0281A3108E8CE30926C
:102410000401209203014AE0429DC001439D900DBA
:102420001124A80FB91FA217B3070CF0E0CE109229
:102430000001DDCE255031091816190624F40F5F6E
:102440001F4F0197D6CE50932F04409330049093A2
:1024500002018093010110920001D9CE0E94EA048A
:1024600087E493E00E941D0550CF84E095E00E9430
:1024700035068AE095E00E94350680E195E00E94ED
:10248000350686E195E00C9435068F929F92AF92C7
:10249000BF92CF92DF92EF92FF92CF93DF93EC0146
:1024A000688179818A819B8161157105810591051A
:1024B00021F464E279ED8BE597E02DE133EF41E023
:1024C00050E00E941E1349015A019B01AC01A7EA8A
:1024D000B1E40E943D136B017C01ACEEB4EFA501A9
:1024E00094010E944B13C60ED71EE81EF91EF7FE7C
:1024F00006C081E0C81AD108E10880E8F80AC8825D
:10250000D982EA82FB82C701B6019F77DF91CF9122
:10251000FF90EF90DF90CF90BF90AF909F908F9003
:1025200008958F929F92AF92BF92CF92DF92EF92D7
:10253000FF926091140170911501809116019091A4
:102540001701611571058105910521F464E279EDAA
:102550008BE597E02DE133EF41E050E00E941E1340
:1025600049015A019B01AC01A7EAB1E40E943D1365
:102570006B017C01ACEEB4EFA50194010E944B13FA
:10258000C60ED71EE81EF91EF7FE06C081E0C81A67
:10259000D108E10880E8F80AC0921401D092150130
:1025A000E0921601F0921701C701B6019F77FF90E4
:1025B000EF90DF90CF90BF90AF909F908F90089555
:1025C0006093140170931501809316019093170185
:1025D0000895BB274A3031F4992322F4BDE2909547
:1025E00081959F4F0C94F512BB27FB015527AA2715
:1025F000880F991FAA1FA41710F0A41B8395505190
:10260000B9F7A05DAA3308F0A95DA193009779F707
:10261000B111B1931192CB010C940E13DC01FC01AA
:10262000672F71917723E1F7329704C07C916D9306
:1026300070836291AE17BF07C8F30895052E97FB0C
:102640001EF400940E94351357FD07D00E94871393
:1026500007FC03D04EF40C943513509540953095FB
:1026600021953F4F4F4F5F4F0895909580957095FE
:1026700061957F4F8F4F9F4F08950E94A913A59F8B
:10268000900DB49F900DA49F800D911D112408956D
:10269000B7FF0C943D130E943D13821B930B0895CA
:1026A0002F923F924F925F926F927F928F929F9262
:1026B000AF92BF92CF92DF92EF92FF920F931F9350
:1026C000CF93DF93CDB7DEB7CA1BDB0B0FB6F89401
:1026D000DEBF0FBECDBF09942A88398848885F8441
:1026E0006E847D848C849B84AA84B984C884DF80B2
:1026F000EE80FD800C811B81AA81B981CE0FD11D96
:102700000FB6F894DEBF0FBECDBFED010895A1E274
:102710001A2EAA1BBB1BFD010DC0AA1FBB1FEE1F5B
:10272000FF1FA217B307E407F50720F0A21BB30BA6
:10273000E40BF50B661F771F881F991F1A9469F722
:1027400060957095809590959B01AC01BD01CF017E
:102750000895A29FB001B39FC001A39F700D811D7A
:102760001124911DB29F700D811D1124911D08959A
:10277000EE0FFF1F0590F491E02D09940F931F9326
:10278000CF93DF938230910510F482E090E0E091E6
:102790002A05F0912B0530E020E0B0E0A0E0309772
:1027A00099F42115310509F44AC0281B390B24304E
:1027B0003105D8F58A819B816115710589F1FB018D
:1027C00093838283FE0111C0408151810281138174
:1027D00048175907E0F04817590799F4109761F026
:1027E00012960C93129713961C933296CF01DF9199
:1027F000CF911F910F91089500932A0510932B05F7
:10280000F4CF2115310551F04217530738F0A901D3
:10281000DB019A01BD01DF01F801C1CFEF01F9CF62
:1028200090932B0580932A05CDCFFE01E20FF31F75
:10283000819391932250310939832883D7CF2091F6
:10284000280530912905232B41F420911A0130915C
:102850001B01309329052093280520911801309100
:1028600019012115310541F42DB73EB740911C01E6
:1028700050911D01241B350BE0912805F09129058D
:10288000E217F307A0F42E1B3F0B2817390778F047
:10289000AC014E5F5F4F2417350748F04E0F5F1FA6
:1028A0005093290540932805819391939FCFF0E0A1
:1028B000E0E09CCFCF93DF930097E9F0FC013297E3
:1028C00013821282A0912A05B0912B05ED0130E010
:1028D00020E01097A1F420813181820F931F209175
:1028E0002805309129052817390709F061C0F093B0
:1028F0002905E0932805DF91CF910895EA01CE17CD
:10290000DF07E8F54A815B819E0141155105B1F76A
:10291000E901FB83EA8349915991C40FD51FEC1754
:10292000FD0761F4808191810296840F951FE90172
:1029300099838883828193819B838A83F0E0E0E09E
:1029400012968D919C9113970097B9F52D913C911A
:102950001197CD010296820F931F20912805309187
:1029600029052817390739F6309751F510922B05AC
:1029700010922A05B0932905A0932805BCCFD383D4
:10298000C28340815181840F951FC817D90761F414
:102990004E5F5F4F88819981480F591F5183408353
:1029A0008A819B81938382832115310509F0B0CF01
:1029B000F0932B05E0932A059ECFFD01DC01C0CFEB
:1029C00013821282D7CFB0E0A0E0E9EEF4E10C94DC
:1029D00052138C01009751F4CB010E94BE138C015D
:1029E000C801CDB7DEB7E0E10C946E13FC01E60F31
:1029F000F71F9C0122503109E217F30708F49DC02C
:102A0000D901CD91DC911197C617D70798F0C53041
:102A1000D10530F3CE0104978617970708F3C61B3C
:102A2000D70B2297C193D1936D937C93CF010E94D2
:102A30005A14D6CF5B01AC1ABD0A4C018C0E9D1EF8
:102A4000A0912A05B0912B05512C412CF12CE12CA1
:102A5000109731F5809128059091290588159905E1
:102A600009F05CC04616570608F058C0809118015E
:102A700090911901009741F48DB79EB740911C01C8
:102A800050911D01841B950BE817F90708F055C0FC
:102A9000F0932905E0932805F90171836083A0CFA5
:102AA0008D919C91119712966C90129713967C9031
:102AB0001397A815B90559F56C0142E0C40ED11C55
:102AC000CA14DB0420F1AC014A195B09DA01129641
:102AD000159780F06282738251834083D9016D9390
:102AE0007C93E114F10471F0D7011396FC93EE93FB
:102AF000129776CF22968C0F9D1FF90191838083C8
:102B0000F301EFCFF0932B05E0932A0569CF481628
:102B1000590608F42C017D01D3019ACFCB010E9404
:102B2000BE137C01009749F0AE01B8010E94A015C8
:102B3000C8010E945A14870153CF10E000E050CF23
:102B4000FB01DC0102C001900D9241505040D8F7CA
:102B50000895FB01DC0101900D920020E1F708953A
:102B600010E0C2E6D0E004C0FE010E94B813219636
:0A2B7000C336D107C9F7F894FFCF70
:102B7A00010A000A000A000A000A0014006400326E
:102B8A00001E00010100000000002C05800000006A
:102B9A00400014005400000000003D019D00CA00DE
:102BAA008A01FB00D900ED00000000006F03420318
:102BBA00860418033B032803190300000000F504E8
:102BCA009D00860485040D0A0035544C2041646535
:102BDA00743A20003130544C20416465743A200024
:102BEA003230544C20416465743A20003530544CDC
:102BFA0020416465743A2000313030544C204164DD
:102C0A0065743A20002D2D2D2D2D2D2D2D2D2D2D98
:102C1A002D2D2D2D2D2D2D2D2D2D2D2D2D2D2D2DDA
:102C2A00004B6F70756B6C656D652C002041646597
:102C3A00742C200059696B616D612C004B7572759B
:102C4A006C616D612C0043696C616C616D612C0073
:102C5A006B6F70756B6C656D650079696B616D6121
:102C6A00006B7572756C756D610063696C616C617E
:102C7A006D6100312E2935544C20322E29313054C1
:102C8A004C20332E293230544C20342E29353054DE
:102C9A004C00352E29313030544C20362E294249E9
:102CAA005449530020544C2050415241204154541D
:102CBA00494E495A00312E294B4F50554B4C454DE0
:102CCA004520322E2959494B414D4100332E294B7B
:102CDA005552554C414D4120342E2943494C414CC3
:102CEA00414D4120362E294249544953004B4F50F9
:102CFA00554B4C454D452053415949534920594557
:102D0A0054455253495A00504152414E495A204261
:102D1A00552049534C454D204943494E2059455465
:102D2A00455253495A0059494B414D412053415943
:102D3A0049534920594554455253495A004B555213
:102D4A00554C414D41205341594953492059455405
:102D5A00455253495A0043494C414C414D41205335
:102D6A00415949534920594554455253495A0050EB
:102D7A004152412053494B4953544921002041446F
:102D8A00455420313030544C2000204144455420D1
:102D9A003530544C002041444554203230544C20A4
:102DAA00002041444554203130544C2000204144F5
:102DBA0045542035544C0059455445524C492042FB
:0C2DCA00414E4B4E4F5420594F4B2100FE
:00000001FF
